:100000000C94F7000C9428010C9428010C942801FE
:100010000C9428010C9428010C9428010C942801BC
:100020000C9428010C9428010C9428010C942801AC
:100030000C9428010C9428010C9428010C9428019C
:100040000C9428010C9428010C9428010C9428018C
:100050000C9428010C9428010C9428010C9490070E
:100060000C9428010C941F0A0C940F0B0C9428017B
:100070000C9428010C9428010C9428010C9428015C
:100080000C9428010C9428010C9428010C9428014C
:100090000C94530A0C944E0B0C9428010C94F70FFB
:1000A0000C9428010C9428010C9428010C9428012C
:1000B0000C9428010C9428010C9428010C9428011C
:1000C0000C9428010C9428010C9428010C94870AA4
:1000D0000C948D0B0C9428010C94BB0A0C94CC0B43
:1000E0000C9428010000090A02080B0C0D070603F6
:1000F00004010000000000000000000000000000FB
:1001000000000000000000000000000000000000EF
:1001100011100F00000000000000000000000000AF
:100120000000000000000000000001021020200874
:100130000810204010204080020102010804020142
:1001400001020408102040808040201008040201B1
:10015000800402018040201008040201080402010A
:100160000102040810204080010204081020408091
:1001700005050505070508080808020202020A0A23
:100180000808040404040101010101010101030341
:10019000030303030303040707070C0C0C0C0C0CEC
:1001A0000C0C0202020206060606060606060B0BE9
:1001B0000B0B0B0B0B0B000020002300260029006B
:1001C0002C002F003200000100000301060109018C
:1001D00000002200250028002B002E0031003400F2
:1001E00002010000050108010B018C0C140F112401
:1001F0001FBECFEFD1E2DEBFCDBF00E00CBF12E0EB
:10020000A0E0B2E0E6EDF4E200E00BBF02C0079030
:100210000D92AE39B107D9F716E0AEE9B2E001C0F0
:100220001D92AA35B107E1F711E0CEEED1E000E072
:1002300006C022970109FE010BBF0E946512CA3E4B
:10024000D10780E00807A9F70E94C20D0C9469123B
:100250000C94000040E855E260E070E088E593E02F
:100260000E940B0C65E072E088E593E00E942A0E84
:1002700068E272E088E593E00E942A0E64E472E08E
:1002800088E593E00E942A0E68E572E088E593E035
:100290000E942A0E279A2F986B9AE1E0F1E0808164
:1002A0008860808380818061808384989D9883E0CA
:1002B0000E94640784E00E94410989EB92E00E9459
:1002C0002B031092A2021092A3021092A402109289
:1002D000A5021092A60208958091A2027C9981E065
:1002E000959982E00895BC016350710983E89AE111
:1002F0000E94231280E090E00E946F110E942B1157
:100300000E943E11862F0895FF920F931F93CF9363
:10031000DF93F82E00E110E0C0E0D0E08F2D0E94C6
:100320006707C80FD91F01501109C1F7CE01D7FDCA
:100330000F969C0184E0359527958A95E1F7C901D0
:10034000DF91CF911F910F91FF900895AF92BF92CF
:10035000DF92EF92FF920F931F93CF93DF93CDB76E
:10036000DEB7A4970FB6F894DEBF0FBECDBF91E005
:100370009983FE0132965E0115E2A10EB11C119225
:10038000EA15FB05E1F7FE01729627E030E090E008
:10039000DD24D39470E050E0022F7C01022E02C0D5
:1003A000F594E7940A94E2F7E0FE06C07F01A0E12D
:1003B000EA1AF108D701DC927B01002E02C0F59405
:1003C000E7940A94E2F7E0FE06C07F01B8E0EB1A7A
:1003D000F108D701DC92DA0102C0B595A7950A951C
:1003E000E2F7A0FDD0822150310931962F3FBFEFB7
:1003F0003B0791F6FE0131967398809102018F7E42
:100400008093020115E01A95F1F700008191813087
:1004100021F480910201886003C080910201877FEE
:100420008093020185E08A95F1F70000739A95E0C8
:100430009A95F1F70000809102018061809302019A
:10044000EA15FB05C9F6A4960FB6F894DEBF0FBEF9
:10045000CDBFDF91CF911F910F91FF90EF90DF9073
:10046000BF90AF900895382F6AE00E941512943023
:10047000F9F05CF49130B1F01CF4992329F125C016
:10048000923091F0933009F511C09730B9F02CF407
:10049000953081F09630C9F40FC0983089F09930CA
:1004A000A1F410C041E611C04BED0FC043EF0DC0E9
:1004B00047E60BC047EB09C04FEB07C041EE05C054
:1004C0004FEF03C047EF01C04DEFEAE0832F6E2FDF
:1004D0000E9415126E2F0E941512943009F15CF4DF
:1004E000913051F11CF4992399F029C09230A1F078
:1004F000933029F513C09730C9F02CF4953091F062
:100500009630E9F411C0983099F09930C1F412C0D6
:100510003436A4F421E013C02BED11C023EF0FC03B
:1005200027E60DC027EB0BC02FEB09C021EE07C05B
:100530002FEF05C027EF03C021E601C02DEF832F69
:1005400064E60E941512882321F0813019F451E6E7
:1005500001C051E081E04827622F682785270C946D
:10056000A6018091A202811118C047EB6DEF8FE9BF
:100570000E94A60104C00E946C018093A202809197
:10058000A2028823C1F30E94DA0760939E0270934F
:100590009F028093A0029093A1028091A2028130D9
:1005A000F1F423EB32E045EB52E067EB72E089EBCC
:1005B00092E00E94D8032DEA32E04FEA52E061EB6C
:1005C00072E089EB92E00E94AA0327EA32E049EA4E
:1005D00052E06BEA72E089EB92E00E94DB038091CB
:1005E000A202823091F4809100020E9484018091E5
:1005F00001020E9484010E9473010E94330262E39F
:1006000070E080E090E00E9416080E946C018093E8
:10061000A20208951F93CF93DF93162FEC016796E4
:1006200041E0CE010E94290640E0612FCE010E94E8
:10063000370640E0612FCE010E94450640E0612F61
:10064000CE010E94530642E0612FCE01DF91CF918F
:100650001F910C946106EF92FF920F931F93CF931B
:10066000DF938C010E94F705C8010F960E94DE03FC
:10067000E8016796CE010E94F705780186E2E80E50
:10068000F11CC7010E94DE03F80116A617A68AE92D
:1006900095E00E94DA0ECE010E942C07CE010E9446
:1006A0005C07882319F081E0F80186A760E0CE019D
:1006B0000E940A0761E0CE010E947206C7010E94F3
:1006C000E2038823E9F181E0F80187A7C7010E94CE
:1006D0001D0440E062E08EE10E946E0560E0CE0104
:1006E0000E9472064EE960E0CE010E94110643E0CE
:1006F00060E0CE010E941D0660E0C8010E940A036E
:100700004EE961E0CE010E94110647E061E0CE01B2
:100710000E941D0661E0C8010E940A034EE962E0E2
:10072000CE010E94110645E062E0CE010E941D0646
:1007300062E0C8010E940A0361E0CE010E940A073C
:1007400061E0CE01DF91CF911F910F91FF90EF906B
:100750000C941807CF92DF92EF92FF920F931F93A2
:10076000CF93DF938B016A017901EC01679660E01A
:1007700070E0CE010E94ED06F8019183808362E073
:1007800070E0CE010E94ED06F6019183808364E063
:1007900070E0CE010E94ED06F70191838083DF9126
:1007A000CF911F910F91FF90EF90DF90CF90089520
:1007B00047960C94790647960C94B3062EE1FC01FB
:1007C000208308950F931F93CF93DF93EC01009143
:1007D0000202109103029C012F5F3F4F43E06AE049
:1007E00088810E942F04833051F48981883439F440
:1007F0008A81843321F481E09B81933309F080E086
:10080000DF91CF911F910F910895462F4295440F8C
:10081000407E61E0FC0180810C946E051F93CF93B4
:10082000DF93EC01162F4F8162E088810E946E05F4
:100830001F83DF91CF911F910895CF93DF93EC0138
:1008400040E760E088810E946E0561E0CE010E9471
:10085000050461E0CE01DF91CF910C940E042F923C
:100860003F924F925F926F927F928F929F92AF9240
:10087000BF92CF92DF92EF92FF920F931F93CF938D
:10088000DF93CDB7DEB728970FB6F894DEBF0FBE63
:10089000CDBF382E6A83942E3C832B830E94DA07C7
:1008A0006B017C01212C812C892D90E09E838D830E
:1008B0002801612C712C41C0632D8AE995E00E94CA
:1008C000F40E6A818AE995E00E949A0E8AE995E021
:1008D0000E94110F632D8AE995E00E94F40E4D816C
:1008E0005E81421951094132510514F040E250E055
:1008F000632D8AE995E00E94F10E18861F82AB8075
:10090000BC80A80CB11C87FCBA949F81980D998378
:100910008AE995E00E943E0E892B71F101151105BF
:10092000B9F10E94DA076C197D098E099F096415D7
:1009300075058605970560F11FC0291408F4BCCF22
:1009400001151105A1F10E94DA076C197D098E09C4
:100950009F0920E030E0601771078207930738F1A4
:10096000282D332727FD3095892D90E0281739074A
:10097000F4F488248A941BC08AE995E00E94110F40
:10098000892DE0E2E91508F480E2280E8980D5CFB0
:100990008AE995E00E94470EEF81F885EA0DFB1D7C
:1009A00080838F819885019698878F83AECF882D1D
:1009B00028960FB6F894DEBF0FBECDBFDF91CF9162
:1009C0001F910F91FF90EF90DF90CF90BF90AF906D
:1009D0009F908F907F906F905F904F903F902F905F
:1009E00008950F931F9389019A0141E00E942F04FB
:1009F0001F910F910895CF92DF92EF92FF920F9384
:100A00001F93CF93DF931F92CDB7DEB7C42ED22EA4
:100A10009701AE014F5F5F4F0E94F1048823F1F010
:100A20004C2D50E04D1951094F5F5F4F61E070E070
:100A300002C0660F771FDA94E2F761507109042E45
:100A400001C0660F0A94EAF72981262330E002C02C
:100A5000359527954A95E2F7F80120830F90DF91AD
:100A6000CF911F910F91FF90EF90DF90CF9008955D
:100A7000EF92FF920F931F93CF93DF931F92CDB707
:100A8000DEB7F62E042F122F682F8AE995E03983FE
:100A90000E94F40E6F2D8AE995E00E949A0EE12ED5
:100AA0003981F32E07C0F70161917F018AE995E052
:100AB0000E949A0E8E2D811B8017A8F38AE995E07B
:100AC0000E94110F91E0811190E0892F0F90DF912A
:100AD000CF911F910F91FF90EF900895CF93DF93E7
:100AE0001F92CDB7DEB749839E012F5F3F4F41E094
:100AF0000E9438050F90DF91CF910895DF92EF9219
:100B0000FF920F931F93CF93DF931F92CDB7DEB762
:100B1000182FF62ED42EE22E2091020230910302DD
:100B2000AE014F5F5F4F0E94F104882319F14D2DF4
:100B300050E04E1951094F5F5F4FE1E0F0E002C015
:100B4000EE0FFF1FEA94E2F73197042E01C0EE0F7B
:100B50000A94EAF701C0000F4A95EAF74E2F409534
:100B6000898148230E23402B49836F2D812F0E94BA
:100B70006E0501C080E00F90DF91CF911F910F9122
:100B8000FF90EF90DF900895EF92FF920F931F93E5
:100B9000CF93DF931F92CDB7DEB7182F062FF42E19
:100BA000E22E2091020230910302AE014F5F5F4FAF
:100BB0000E94F104898121E030E00F2C01C0220F56
:100BC0000A94EAF7EE2019F0482F422B03C0422F77
:100BD000409548234983602F812F0E946E050F9016
:100BE000DF91CF911F910F91FF90EF90089528E62C
:100BF000FC01208308950F93062F22E044E06BE16F
:100C0000FC0180810E947E050F9108950F93062FAD
:100C100022E044E06CE1FC0180810E947E050F919E
:100C20000895643048F4262F220F260F2B5D622F83
:100C3000FC0180810C946E050895643048F4262FE1
:100C4000220F260F2A5D622FFC0180810C946E0515
:100C50000895242F643050F4362F330F360F395D4A
:100C600047E0632FFC0180810C94C4050895242F74
:100C7000643050F4362F330F360F395D46E0632F62
:100C8000FC0180810C94C4050895242F643050F435
:100C9000362F330F360F395D45E0632FFC0180811D
:100CA0000C94C4050895242F643050F4362F330F6C
:100CB000360F395D44E0632FFC0180810C94C4053C
:100CC00008950F93643060F4362F330F360F395D7B
:100CD000042F24E043E0632FFC0180810E947E0505
:100CE0000F910895262F41E067E3FC0180810C9469
:100CF000C405AF92BF92CF92DF92EF92FF920F9313
:100D00001F93CF93DF93EC017B015A01690100919E
:100D10000202109103029C012F5F3F4F46E06BE3FC
:100D200088810E942F04998180E02A81822BF7011B
:100D3000918380839B8180E02C81822BF5019183BC
:100D400080839D8180E02E81822BF60191838083B8
:100D5000DF91CF911F910F91FF90EF90DF90CF9097
:100D6000BF90AF900895AF92BF92CF92DF92EF9273
:100D7000FF920F931F93CF93DF93EC017B015A01F6
:100D8000690100910202109103029C012F5F3F4F05
:100D900046E063E488810E942F04998180E02A81E3
:100DA000822BF701918380839B8180E02C81822BB1
:100DB000F501918380839D8180E02E81822BF60155
:100DC00091838083DF91CF911F910F91FF90EF90DE
:100DD000DF90CF90BF90AF9008950F931F93CF9364
:100DE000DF93EC0100910202109103029C012F5F3E
:100DF0003F4F675B42E088810E942F04998180E029
:100E00002A81AC01422B9A01C901DF91CF911F9138
:100E10000F910895262F45E06AE6FC0180810C942D
:100E2000C405262F46E06BE6FC0180810C94C405C6
:100E3000262F31E0232743E06BE6FC0180810C94F0
:100E4000C4050F93062F23E042E06BE6FC0180818E
:100E50000E947E050F910895CF93DF93EC0161E02E
:100E60000E94210760E0CE010E94FB0560E0CE01F8
:100E70000E94060660E0CE01DF91CF910C9411072D
:100E8000EF92FF920F931F93CF93DF93EC01E090CB
:100E90000202F09003028C010F5F1F4F26E046E034
:100EA00065E788810E94FB048981DF91CF911F91C2
:100EB0000F91FF90EF9008950E94400791E08433D6
:100EC00009F090E0892F08958093040208958633F5
:100ED00008F0865320917B00982F9870277F922BE3
:100EE00090937B0087702091040240E4249F90013E
:100EF0001124822B80937C0080917A0080648093FF
:100F00007A0080917A0086FDFCCF209178003091A4
:100F10007900932F80E0AC01422B9A01C90108951A
:100F20001F920F920FB60F9211242F933F938F931E
:100F30009F93AF93BF938091E9029091EA02A091B1
:100F4000EB02B091EC023091F102232F2D5F2D378F
:100F500020F40196A11DB11D05C0232F2A5702962A
:100F6000A11DB11D2093F1028093E9029093EA0242
:100F7000A093EB02B093EC028091ED029091EE020F
:100F8000A091EF02B091F0020196A11DB11D8093D6
:100F9000ED029093EE02A093EF02B093F002BF91A6
:100FA000AF919F918F913F912F910F900FBE0F9016
:100FB0001F9018950F931F938FB7F8940091E90233
:100FC0001091EA022091EB023091EC028FBFB80140
:100FD000C9011F910F9108950F931F939FB7F89424
:100FE0000091ED021091EE022091EF023091F0029B
:100FF00086B5A89B06C08F3F21F00F5F1F4F2F4F74
:101000003F4F9FBF322F212F102F0027080F111D98
:10101000211D311D42E0000F111F221F331F4A9571
:10102000D1F7B801C9011F910F910895CF92DF92B6
:10103000EF92FF92CF93DF936B017C010E94EC074C
:10104000EB010EC00E94EC076C1B7D0B683E7340E9
:1010500038F081E0C81AD108E108F108C851DC4F26
:10106000C114D104E104F10469F7DF91CF91FF903D
:10107000EF90DF90CF900895789484B5826084BD1E
:1010800084B5816084BD85B5826085BD85B581608C
:1010900085BDEEE6F0E0808181608083E1E8F0E0EC
:1010A0001082808182608083808181608083E0E81B
:1010B000F0E0808181608083E1EBF0E080818460FA
:1010C0008083E0EBF0E0808181608083E1E9F0E003
:1010D000808182608083808181608083E0E9F0E0AC
:1010E000808181608083E1EAF0E08081826080839A
:1010F000808181608083E0EAF0E08081816080838C
:10110000E1E2F1E080818260808380818160808380
:10111000E0E2F1E0808181608083EAE7F0E08081B5
:10112000846080838081826080838081816080830D
:101130008081806880831092C1000895893009F40D
:1011400043C088F4843029F138F4823059F1E8F44E
:10115000813009F05EC023C0873061F188F58630A8
:1011600009F057C023C08D3009F440C020F48B3003
:10117000A9F1C0F52DC0803109F442C0813109F4D4
:1011800043C08F3009F045C037C0809180008F7711
:1011900003C0809180008F7D80938000089584B586
:1011A0008F7702C084B58F7D84BD08958091B00093
:1011B0008F7703C08091B0008F7D8093B000089539
:1011C000809190008F7707C0809190008F7D03C041
:1011D00080919000877F8093900008958091A00077
:1011E0008F7707C08091A0008F7D03C08091A00001
:1011F000877F8093A0000895809120018F7707C09A
:10120000809120018F7D03C080912001877F809392
:10121000200108950F931F93CF93DF931F92CDB7B3
:10122000DEB7282F30E0F901EC51FF4F8491F9012E
:10123000E65DFE4F1491F901E059FE4F0491002341
:10124000D1F0882321F069830E949E086981E02FF4
:10125000F0E0EE0FFF1FE053FE4F85919491DC010B
:101260009FB7F8948C91611103C01095812301C040
:10127000812B8C939FBF0F90DF91CF911F910F9186
:101280000895CF93DF93282F30E0F901EC51FF4F01
:101290008491F901E65DFE4FD491F901E059FE4FCA
:1012A000C491CC2389F081110E949E08EC2FF0E0BC
:1012B000EE0FFF1FEA54FE4F85919491DC018C9153
:1012C0008D2321E030E011F420E030E0C901DF910E
:1012D000CF910895FC0184859585FC01E05CFF4F6A
:1012E00020813181FC01EE5BFF4F80819181281BC1
:1012F000390B2F733327C9010895FC018485958527
:10130000FC01E05CFF4F40815181FC01EE5BFF4F2F
:10131000208131814217530741F00190F081E02D87
:10132000E80FF91F208130E002C02FEF3FEFC90125
:101330000895FC0184859585FC01E05CFF4F4081A8
:101340005181FC01EE5BFF4F208131814217530731
:1013500081F0A081B181A80FB91F8C9120813181CA
:101360002F5F3F4F2F73332731832083282F30E0A7
:1013700002C02FEF3FEFC9010895FC0181A188232E
:1013800029F0A489B5898C9186FFFBCF11A208951D
:10139000CF93DF93FC0126853785D901A05CBF4F31
:1013A0008D919C91119701968F739927E901CE5BDE
:1013B000DF4F4881598184179507D9F30D90BC916F
:1013C000A02DA20FB31F6C93A685B785A05CBF4F5D
:1013D00011969C938E93A689B7892C9181E090E019
:1013E000078C02C0880F991F0A94E2F7282B2C93D0
:1013F00081E081A30488F589E02D80818064808369
:1014000081E090E0DF91CF910895FB01E05CFF4F18
:10141000208131812F5F3F4F2F733327DB01AE5B7C
:10142000BF4F4D915C912417350739F0A081B181F0
:10143000A60FB71F8C9331832083089508951F92C0
:101440000F920FB60F9211240BB60F922F933F936A
:101450004F935F936F937F938F939F93AF93BF93BC
:10146000EF93FF938091C00082FD07C08091C6007A
:1014700066E575E00E94050A02C08091C600FF91F2
:10148000EF91BF91AF919F918F917F916F915F91FC
:101490004F913F912F910F900BBE0F900FBE0F9069
:1014A0001F90189508951F920F920FB60F92112456
:1014B0000BB60F922F933F934F935F936F937F934E
:1014C0008F939F93AF93BF93EF93FF938091C80047
:1014D00082FD07C08091CE006EEC74E00E94050A88
:1014E00002C08091CE00FF91EF91BF91AF919F918B
:1014F0008F917F916F915F914F913F912F910F90BD
:101500000BBE0F900FBE0F901F90189508951F925D
:101510000F920FB60F9211240BB60F922F933F9399
:101520004F935F936F937F938F939F93AF93BF93EB
:10153000EF93FF938091D00082FD07C08091D60089
:1015400066E474E00E94050A02C08091D600FF9113
:10155000EF91BF91AF919F918F917F916F915F912B
:101560004F913F912F910F900BBE0F900FBE0F9098
:101570001F90189508951F920F920FB60F92112485
:101580000BB60F922F933F934F935F936F937F937D
:101590008F939F93AF93BF93EF93FF93809130010D
:1015A00082FD07C0809136016EEB73E00E94050A50
:1015B00002C080913601FF91EF91BF91AF919F9151
:1015C0008F917F916F915F914F913F912F910F90EC
:1015D0000BBE0F900FBE0F901F90189588E593E0FB
:1015E0000E946A09892B11F00E941E0A86E393E08B
:1015F0000E946A09892B11F00E94520A84E193E04B
:101600000E946A09892B11F00E94860A82EF92E0FB
:101610000E946A09892B11F00C94BA0A08951F924E
:101620000F920FB60F9211240BB60F922F933F9388
:101630008F939F93EF93FF93209152053091530521
:1016400080915405909155052817390731F4809100
:10165000C1008F7D8093C10014C0E0915405F091CA
:101660005505EE5EFA4F2081809154059091550505
:1016700001968F7399279093550580935405209375
:10168000C600FF91EF919F918F913F912F910F9005
:101690000BBE0F900FBE0F901F9018951F920F92C8
:1016A0000FB60F9211240BB60F922F933F938F9387
:1016B0009F93EF93FF932091CA043091CB048091C4
:1016C000CC049091CD042817390731F48091C900DA
:1016D0008F7D8093C90014C0E091CC04F091CD04BB
:1016E000E657FB4F20818091CC049091CD04019668
:1016F0008F7399279093CD048093CC042093CE00D0
:10170000FF91EF919F918F913F912F910F900BBE81
:101710000F900FBE0F901F9018951F920F920FB64B
:101720000F9211240BB60F922F933F938F939F9399
:10173000EF93FF932091420430914304809144043D
:10174000909145042817390731F48091D1008F7D9D
:101750008093D10014C0E0914404F0914504EE5F01
:10176000FB4F2081809144049091450401968F7332
:10177000992790934504809344042093D600FF91C9
:10178000EF919F918F913F912F910F900BBE0F90F2
:101790000FBE0F901F9018951F920F920FB60F92C9
:1017A00011240BB60F922F933F938F939F93EF9338
:1017B000FF932091BA033091BB038091BC039091B9
:1017C000BD032817390731F4809131018F7D809353
:1017D000310114C0E091BC03F091BD03E658FC4F09
:1017E00020818091BC039091BD0301968F7399274E
:1017F0009093BD038093BC0320933601FF91EF913A
:101800009F918F913F912F910F900BBE0F900FBE24
:101810000F901F901895CF92DF92EF92FF92CF9387
:10182000DF93EC016A017B01411581EE58076105E8
:101830007105F9F0EC89FD8981E090E008A002C013
:10184000880F991F0A94E2F7808360E079E08DE3C6
:1018500090E0A70196010E943712215031094109F9
:1018600051095695479537952795211580E13807F9
:1018700098F0EC89FD89108260E874E88EE190E0D0
:10188000A70196010E9437122150310941095109DF
:101890005695479537952795E889F9893083EA89E0
:1018A000FB89208319A2EE89FF89408181E090E0C5
:1018B0009C010C8C02C0220F331F0A94E2F7422BCA
:1018C0004083EE89FF8940819C010D8C02C0220F6C
:1018D000331F0A94E2F7422B4083EE89FF8940814F
:1018E0009C010E8C02C0220F331F0A94E2F7422B98
:1018F0004083EE89FF8920810F8C02C0880F991FD9
:101900000A94E2F7809582238083DF91CF91FF9044
:10191000EF90DF90CF900895CF9310925B031092D9
:101920005A0388EE93E0A0E0B0E080935C039093CC
:101930005D03A0935E03B0935F0321E832E0309330
:1019400059032093580346E555E0509365034093AF
:10195000640342E155E0509367034093660345EC0E
:1019600050E0509369034093680344EC50E0509377
:101970006B0340936A0340EC50E050936D03409337
:101980006C0341EC50E050936F0340936E0342ECC4
:1019900050E0509371034093700346EC50E0509335
:1019A000730340937203C4E0C0937403F3E0F093B5
:1019B0007503E7E0E093760375E07093770361E0E9
:1019C00060937803109239031092380380933A039E
:1019D00090933B03A0933C03B0933D0330933703B4
:1019E000209336034EEC54E050934303409342035C
:1019F0004AE854E050934503409344034DEC50E0D3
:101A000050934703409346034CEC50E050934903F6
:101A10004093480348EC50E050934B0340934A03F3
:101A200049EC50E050934D0340934C034AEC50E096
:101A300050934F0340934E034EEC50E050935103AC
:101A400040935003C0935203F0935303E093540325
:101A50007093550360935603109217031092160368
:101A60008093180390931903A0931A03B0931B0358
:101A7000309315032093140346E454E0509321035C
:101A80004093200342E054E0509323034093220309
:101A900045ED50E0509325034093240344ED50E07E
:101AA000509327034093260340ED50E050932903C1
:101AB0004093280341ED50E050932B0340932A03B9
:101AC00042ED50E050932D0340932C0346ED50E03F
:101AD00050932F0340932E03C0933003F0933103B0
:101AE000E093320370933303609334031092F50252
:101AF0001092F4028093F6029093F702A093F802FA
:101B0000B093F9023093F3022093F2028EEB93E04C
:101B10009093FF028093FE028AE793E09093010383
:101B20008093000385E391E0909303038093020385
:101B300084E391E0909305038093040380E391E0B4
:101B4000909307038093060381E391E09093090348
:101B50008093080382E391E090930B0380930A0340
:101B600086E391E090930D0380930C03C0930E03E2
:101B7000F0930F03E093100370931103609312032B
:101B8000CF9108950E943C080E942A01CEEEDAE02F
:101B90000E94B1022097E1F30E94EE0AF9CFCF92A2
:101BA000DF92EF92FF920F931F93CF93DF936C011D
:101BB000EB017A01E60EF71E00E010E00BC0699120
:101BC000D601ED91FC910190F081E02DC6011995AF
:101BD000080F191FCE15DF0591F7C801DF91CF91CE
:101BE0001F910F91FF90EF90DF90CF9008956115B6
:101BF000710581F0DB010D900020E9F7AD01415046
:101C00005109461B570BDC01ED91FC910280F381D9
:101C1000E02D199480E090E00895DC01ED91FC91B5
:101C20000190F081E02D19940F931F93CF93DF93D0
:101C3000EC016DE00E940D0E8C016AE0CE010E9465
:101C40000D0E9C01200F311FC901DF91CF911F9113
:101C50000F9108950F931F93CF93DF93EC010E9490
:101C6000F70D8C01CE010E94140E9801280F391F28
:101C7000C901DF91CF911F910F9108952091CA055D
:101C800030E08091CB05281B3109C901089580916E
:101C9000CB059091CA05891750F4E82FF0E0E45382
:101CA000FA4F208130E08F5F8093CB0502C02FEF89
:101CB0003FEFC9010895E091CB058091CA05E8176F
:101CC00030F4F0E0E453FA4F208130E002C02FEF0F
:101CD0003FEFC90108950895CF92DF92EF92FF92EE
:101CE0000F931F93CF93DF937C01CB018A01209147
:101CF000A605222391F0EB016B01C40ED51E09C08D
:101D00006991D701ED91FC910190F081E02DC7011F
:101D10001995CC15DD05A1F703C0642F0E94CE0FE5
:101D2000C801DF91CF911F910F91FF90EF90DF904D
:101D3000CF900895CF93DF931F92CDB7DEB769831D
:101D40002091A6052223D1F02091A705203240F052
:101D500021E030E0FC013383228320E030E015C035
:101D60008091A805E82FF0E0E755FA4F998190831C
:101D70008F5F8093A8058093A70505C061E0CE0121
:101D800001960E94CE0F21E030E0C9010F90DF9153
:101D9000CF910895FC011382128248EE53E060E077
:101DA00070E0448355836683778381E992E0918371
:101DB000808308951092CB051092CA051092A80551
:101DC0001092A7050C94180F862F413208F040E2BC
:101DD0006CEC75E00E94360F1092CB058093CA051B
:101DE000089521E00C94E40E81E08093A6056093B1
:101DF000C9051092A8051092A70508950F93062F04
:101E000021E04091A70569EA75E08091C9050E942B
:101E10007B0F1092A8051092A7051092A6050F91AE
:101E2000089561E00C94FE0E8AE995E00C94CA0EC8
:101E30001092F50581E08093F3051092F20561E0C0
:101E400084E10E940A0961E085E10E940A09E9EB48
:101E5000F0E080818E7F808380818D7F808388E425
:101E60008093B80085E48093BC000895413208F067
:101E70003FC09091F5059111FCCF91E09093F5054D
:101E80002093F3052FEF2093EC051092F105242FFA
:101E900021502093F0059093F4059091F405880F5C
:101EA000892B8093F4058091F205813041F41092E2
:101EB000F2058091F4058093BB0085EC01C085EEAE
:101EC0008093BC008091F5058130E1F38091F105AC
:101ED000841710F44091F10526EF35E0FB01D9019C
:101EE00002C08D9181938A2F821B8417D0F301C089
:101EF00040E0842F08950F93413208F046C090913E
:101F0000F5059111FCCF92E09093F5050093F30550
:101F10009FEF9093EC051092F1054093F005FB01C3
:101F200066EF75E0DB0102C091919D939A2F961B9D
:101F30009417D0F31092F4059091F405880F892B33
:101F40008093F4058091F205813041F41092F205FE
:101F50008091F4058093BB0085EC01C085EE8093F1
:101F6000BC00222321F08091F5058230E1F38091BD
:101F7000EC058F3F61F08091EC05803251F080914B
:101F8000EC05803341F483E007C081E005C080E0C8
:101F900003C082E001C084E00F910895613298F49B
:101FA0002091F505243089F46093EE05FC0186E16B
:101FB00096E0DC0102C021912D932A2F281B2617C1
:101FC000D0F380E0089581E0089582E0089585EDE2
:101FD0008093BC008091BC0084FDFCCF1092F5057D
:101FE000089585EC8093BC001092F50508951F922A
:101FF0000F920FB60F9211240BB60F922F933F93AF
:102000004F935F936F937F938F939F93AF93BF9300
:10201000EF93FF938091B900887F803609F49FC0C9
:1020200058F5883209F45BC090F4803109F452C04D
:1020300038F4882309F4F8C0883009F0F9C04AC0A0
:10204000883109F44CC0803209F0F2C05CC08034A1
:1020500009F46BC038F4803309F455C0883309F0B3
:10206000E7C054C0803509F454C0883509F462C013
:10207000883409F0DDC0DAC0883909F4CBC0A8F48F
:10208000883709F46CC038F4883609F468C08037A2
:1020900009F0CEC064C0883809F4BCC0803909F4A6
:1020A00064C0803809F0C4C060C0803B09F48AC0B5
:1020B00038F4803A09F46BC0883A09F0B9C082C09C
:1020C000803C09F4ABC0883C09F4A8C0883B09F007
:1020D000AFC08DC08091F4058093BB0012C0909179
:1020E000F1058091F005981788F58091F105E82FAA
:1020F000F0E0EA50FA4F90819093BB008F5F80939D
:10210000F10585EC88C08093EC0590C08093EC05C8
:1021100056C08091F1059091BB00E82FF0E0EA50A5
:10212000FA4F90838F5F8093F1059091F105809134
:10213000F0056DC08091F1059091BB00E82FF0E0B3
:10214000EA50FA4F90838F5F8093F1058091F305F9
:1021500081116CC081E08093F20584EA60C083E065
:102160008093F5051092ED05CCCF8091ED0580327E
:1021700008F050C08091ED059091BB00E82FF0E091
:10218000E65CF94F90838F5F8093ED05BACF809125
:10219000ED05803230F4E091ED05F0E0E65CF94FBA
:1021A00010820E94E70F6091ED05E0913606F091F4
:1021B000370670E08AE396E019951092ED050E94CB
:1021C000F10F36C084E08093F5051092EF05109270
:1021D000EE05E0913806F091390619958091EE05EB
:1021E000811105C081E08093EE0510921606809162
:1021F000EF05E82FF0E0EA5EF94F90819093BB0085
:102200008F5F8093EF059091EF058091EE05981711
:1022100008F477CF85E88093BC000AC085EC8093F2
:10222000BC001092F50504C01092EC050E94E70F67
:10223000FF91EF91BF91AF919F918F917F916F919E
:102240005F914F913F912F910F900BBE0F900FBE5A
:102250000F901F901895CBD080F09F3740F49111CC
:102260000EF4DDC060E070E080E89FE3089526F0A2
:102270001B16611D711D811D6FC089C004D068943B
:10228000B111CDC0089599D088F09F5790F0B92F23
:102290009927B751A0F0D1F0660F771F881F991FBB
:1022A0001AF0BA95C9F712C0B13081F0B7D0B1E0D9
:1022B0000895B4C0672F782F8827B85F39F0B93FE9
:1022C000CCF3869577956795B395D9F73EF49095BD
:1022D0008095709561957F4F8F4F9F4F0895E8943B
:1022E00009C097FB3EF490958095709561957F4F5E
:1022F0008F4F9F4F9923A9F0F92F96E9BB2793950C
:10230000F695879577956795B795F111F8CFFAF41B
:10231000BB0F11F460FF1BC06F5F7F4F8F4F9F4F4C
:1023200016C0882311F096E911C0772321F09EE8AA
:10233000872F762F05C0662371F096E8862F70E010
:1023400060E02AF09A95660F771F881FDAF7880FEA
:102350009695879597F90895882371F4772321F04E
:102360009850872B762F07C0662311F499270DC04C
:102370009051862B70E060E02AF09A95660F771FE7
:10238000881FDAF7880F9695879597F908959F3FEC
:1023900031F0915020F4879577956795B795880F20
:1023A000911D9695879597F9089557FD9058440F7C
:1023B000551F59F05F3F71F04795880F97FB991FA4
:1023C00061F09F3F79F08795089512161306140661
:1023D000551FF2CF4695F1DF08C0161617061806EE
:1023E000991FF1CF86957105610508940895E5DF81
:1023F000A0F0BEE7B91788F4BB279F3860F4161623
:10240000B11D672F782F8827985FF7CF869577952E
:102410006795B11D93959639C8F30895E894BB2745
:1024200066277727CB0197F9089587FB082E0626A4
:1024300087FD819567FD61950E9459120EF4919573
:1024400007FC81950895AA1BBB1B51E107C0AA1F79
:10245000BB1FA617B70710F0A61BB70B881F991F45
:102460005A95A9F780959095BC01CD010895A1E2F8
:102470001A2EAA1BBB1BFD010DC0AA1FBB1FEE1FFE
:10248000FF1FA217B307E407F50720F0A21BB30B49
:10249000E40BF50B661F771F881F991F1A9469F7C5
:1024A00060957095809590959B01AC01BD01CF0121
:1024B0000895991B79E004C0991F961708F0961BA0
:1024C000881F7A95C9F7809508950790F691E02DB9
:0624D0001994F894FFCFFF
:1024D6000403E803012D2D2D2D2D2D2D2D2D2D2D14
:1024E6002D2D2D2D2D2D2D2D2D2D2D2D2D2D2D2D16
:1024F6002D2D2D2D2D2D2D00504B45532057696E1A
:1025060074657273656D657374657220323031332C
:102516002F313400566F726C61676520332E20416F
:1025260075666761626520002D2D2D2D2D2D2D2DB3
:102536002D2D2D2D2D2D2D2D2D2D2D2D2D2D2D2DC5
:102546002D2D2D2D2D2D2D2D2D2D0D0A00000000AC
:1025560000C809CF0D6A0999097D09BD0900000067
:0E256600009A0E6C0E3E0E470E5B0E6B0E00C2
:00000001FF
