:100000000C94EF000C9410010C9410010C9410014E
:100010000C9410010C9410010C9410010C9410011C
:100020000C9410010C9410010C9410010C9410010C
:100030000C9410010C9410010C9410010C941001FC
:100040000C9410010C9410010C9410010C941001EC
:100050000C9410010C9410010C9410010C941001DC
:100060000C9410010C9410010C9410010C941001CC
:100070000C9410010C9410010C9410010C941001BC
:100080000C9410010C9410010C9410010C941001AC
:100090000C9410010C9410010C9410010C9410019C
:1000A0000C9410010C9410010C9410010C9410018C
:1000B0000C9410010C9410010C9410010C9410017C
:1000C0000C9410010C9410010C9410010C9410016C
:1000D0000C9410010C9410010C9410010C9410015C
:1000E0000C94100100407A10F35A00A0724E1809C7
:1000F0000010A5D4E80000E87648170000E40B548F
:10010000020000CA9A3B000000E1F505000080965D
:100110009800000040420F000000A086010000008F
:10012000102700000000E803000000006400000049
:1001300000000A00000000000100000000002C7612
:10014000D888DC674F0823DFC1DFAE59E1B1B7962D
:10015000E5E3E453C63AE651997696E8E6C284268A
:10016000EB898C9B62ED407C6FFCEFBC9C9F40F266
:10017000BAA56FA5F490055A2AF75C936B6CF967E2
:100180006DC11BFCE0E40D47FEF520E6B500D0EDA7
:10019000902E0300943577050080841E080000200F
:1001A0004E0A000000C80C333333330F986E1283AD
:1001B0001141EF8D2114893BE65516CFFEE6DB1881
:1001C000D1844B381BF77C1D901DA4BBE424203246
:1001D00084725E228100C9F124ECA1E53D2711243F
:1001E0001FBECFEFD1E2DEBFCDBF00E00CBF12E0FB
:1001F000A0E0B2E0E0E5F1E100E00BBF02C0079053
:100200000D92A43AB107D9F712E0A4EAB2E001C016
:100210001D92A73AB107E1F70E94ED010C94A608E0
:100220000C9400008091A5029091A602A091A402D6
:100230007C9981E0959980E09A95992311F00C942E
:100240002701813019F0AA950C942701A39580937A
:10025000A5029093A602A093A402279A2F986B9AC6
:10026000E1E0F1E08081886080838081806180832B
:1002700084989D981092C50087E68093C400E0ECB6
:10028000F0E080818D7F808388E08093C10086E0EC
:100290008093C2000895AF92BF92DF92EF92FF92D7
:1002A0000F931F93CF93DF93CDB7DEB7A4970FB60D
:1002B000F894DEBF0FBECDBF91E09983FE01329668
:1002C0005E0115E2A10EB11C1192EA15FB05E1F7E2
:1002D000FE01729627E030E090E0DD24D39470E0D8
:1002E00050E0022F7C01022E02C0F594E7940A949C
:1002F000E2F7E0FE06C07F01A0E1EA1AF108D701AB
:10030000DC927B01002E02C0F594E7940A94E2F798
:10031000E0FE06C07F01B8E0EB1AF108D701DC92DD
:10032000DA0102C0B595A7950A95E2F7A0FDD08243
:100330002150310931962F3FBFEF3B0791F6FE0167
:1003400031967398809102018F7E8093020115E0AF
:100350001A95F1F700008191813021F4809102011A
:10036000886003C080910201877F8093020185E04D
:100370008A95F1F70000739A95E09A95F1F70000DD
:1003800080910201806180930201EA15FB05C9F6A4
:10039000A4960FB6F894DEBF0FBECDBFDF91CF910C
:1003A0001F910F91FF90EF90DF90BF90AF90089555
:1003B0009091C00095FFFCCF8093C60080E090E054
:1003C0000895CF93DF93EC0102C00E94D801899178
:1003D0008111FBCFDF91CF910895CF93DF93CDB7FC
:1003E000DEB765970FB6F894DEBF0FBECDBF0E9493
:1003F0002D018EE392E00E94E10180E092E00E94F4
:10040000E1018EE192E00E94E1018E010F5F1F4F3A
:1004100022E041E06DEC7CEC8CE49EE30E945B0307
:100420000E94E1018CE392E00E94E10147EB6DEF55
:100430008FE90E944B0183E08093A6021092A402F0
:100440001092A50283E692E00E94E1017C9902C02D
:10045000959BFCCF17EB5DEF9FE9A92E23E0722E51
:1004600035E7E32E32E0F32E44244394512C4C0E16
:100470005D1E62E8C62E62E0D62E01E07AE0972E7D
:100480008FE39CE90197F1F700C000002F988FE3FC
:100490009CE90197F1F700C000002F9A7092A60224
:1004A00033C05D8B0E9412018091A602282F332752
:1004B00027FD30953F938F93FF92EF925F924F927B
:1004C0000E947C03C2010E94E10182E792E00E9447
:1004D000E1018091A402282F332727FD30953F9317
:1004E0008F93DF92CF925F924F920E947C03C20162
:1004F0000E94E10182E792E00E94E1010FB6F894C8
:10050000DEBF0FBECDBF5D898091A60218164CF2EA
:100510008091A502813019F482E992E002C087E956
:1005200092E05D8B0E94E1015D898EE992E05D8B36
:100530000E94E1018091A4025D8987FF07C080913C
:10054000A40281958093A40221E001C020E0809163
:10055000A402692D0E9441039430F9F05CF49130BB
:10056000B1F01CF4992329F125C0923091F0933019
:1005700009F511C09730B9F02CF4953081F0963020
:10058000C9F40FC0983089F09930A1F410C011E679
:1005900011C01BED0FC013EF0DC017E60BC017EB1A
:1005A00009C01FEB07C011EE05C01FEF03C017EF16
:1005B00001C01DEF8091A402692D0E944103692DA5
:1005C0000E944103943019F15CF4913061F11CF404
:1005D000992399F02BC09230B1F0933039F515C0C2
:1005E0009730D9F02CF49530A1F09630F9F413C07F
:1005F0009830A9F09930D1F414C08091A4028436C7
:10060000A4F451E013C05BED11C053EF0FC057E6E7
:100610000DC057EB0BC05FEB09C051EE07C05FEF99
:1006200005C057EF03C051E601C05DEF8091A40201
:1006300064E60E944103692D0E944103992329F039
:10064000913029F481E6A82E02C0AA24A394213077
:1006500069F48091A4028A3014F4526002C092E0DE
:10066000A92A8091A40281958093A4021027502783
:10067000A026412F652F8A2D5D8B0E944B015D893D
:10068000FFCE87FB082E062687FD819567FD6195C5
:100690000E944F030EF4919507FC81950895991BD4
:1006A00079E004C0991F961708F0961B881F7A9569
:1006B000C9F780950895EF920F931F93CF93C02FA2
:1006C00047FF02C034E101C034E0E42FFF27E7FD1B
:1006D000F095F7FF03C0F195E195F109E32E022FA4
:1006E0002E2F4C2F512F0E94B3058C2F912FCF917D
:1006F0001F910F91EF9008950F931F93CF93DF9366
:10070000CDB7DEB760970FB6F894DEBF0FBECDBF92
:10071000088D198D86E08C831A8309838FEF9FE7FC
:100720009E838D83AE01445E5F4F588B4F876A8DE9
:100730007B8DCE0101960E94AD03EF81F885E00F1D
:10074000F11F108260960FB6F894DEBF0FBECDBFCA
:10075000DF91CF911F910F9108952F923F924F9269
:100760005F926F927F928F929F92AF92BF92CF9241
:10077000DF92EF92FF920F931F93CF93DF93CDB74A
:10078000DEB72C970FB6F894DEBF0FBECDBF7C014D
:100790006B018A01FC0117821682838181FFC7C128
:1007A00088248394912C8C0E9D1EF7019381F60171
:1007B00093FD859193FF81916F01882309F4B3C163
:1007C000853239F493FD859193FF81916F018532D4
:1007D00029F4B70190E00E941C08E7CF712C312C5E
:1007E00020E02032A8F48B3261F028F4803251F0FE
:1007F000833271F40BC08D3239F0803349F42160BB
:1008000028C02260246025C0286023C0206121C048
:1008100027FD27C0382F30533A3078F426FF06C022
:10082000FAE07F9E300D1124732E13C08AE0389EAB
:10083000300D1124332E20620CC08E3221F426FD9F
:1008400072C1206406C08C3611F4206802C088365C
:1008500041F4F60193FD859193FF81916F01811120
:10086000C0CF982F9554933018F09052933028F4BD
:100870000C5F1F4FFFE3F9830DC0833631F08337E0
:1008800071F0833509F05EC023C0F801808189834F
:100890000E5F1F4F66246394712C540115C028010C
:1008A000F2E04F0E511CF801A080B18026FF03C07A
:1008B000672D70E002C06FEF7FEFC5012C870E94AB
:1008C00011083C0182012C856FE7262E222218C0D8
:1008D0002801F2E04F0E511CF801A080B18026FFE4
:1008E00003C0672D70E002C06FEF7FEFC5012C875A
:1008F0000E9406083C012C8550E8252E222A820100
:1009000023FC1CC006C0B70180E290E00E941C08D6
:100910003A94832D90E068167906A8F30FC0F5018C
:1009200027FC859127FE81915F01B70190E00E942D
:100930001C0831103A94F1E06F1A710861147104C7
:1009400071F7EEC0843611F0893641F5F80127FFC2
:1009500007C060817181828193810C5F1F4F08C045
:1009600060817181882777FD8095982F0E5F1F4FDA
:100970004FE6642E622297FF09C09095809570958E
:1009800061957F4F8F4F9F4FF0E86F2A2AE030E04C
:10099000A4010E944808A82EA81844C0853731F445
:1009A0003FEEB32EB2222AE030E024C099EFB92EF8
:1009B000B2228F36B9F020F4883509F0B4C00DC0EA
:1009C000803721F0883709F0AEC002C020E1B22A9A
:1009D000B4FE0BC084E0B82A08C024FF09C0E6E0DA
:1009E000BE2A06C028E030E005C020E130E002C0A9
:1009F00020E132E0F801B7FE07C060817181828199
:100A000093810C5F1F4F06C06081718180E090E090
:100A10000E5F1F4FA4010E944808A82EA8188FE758
:100A2000682E6B2066FE0BC0362D3E7FA71450F457
:100A300064FE0AC062FC08C0362D3E7E05C0BA2C9A
:100A4000362D03C0BA2C01C0B72C34FF0DC0FE01F7
:100A5000EA0DF11D8081803311F4397E09C032FF27
:100A600006C0B394B39404C0832F867809F0B3947E
:100A700033FD14C030FF0FC07A2CB31460F4730C34
:100A80007B18B32C08C0B70180E290E03C870E943D
:100A90001C08B3943C85B314B0F304C0B31410F431
:100AA0003B1801C0312C34FF12C0B70180E390E045
:100AB0003C870E941C083C8532FF1EC031FF03C0EA
:100AC00088E590E002C088E790E0B7010CC0832F72
:100AD000867891F031FD02C080E201C08BE237FDE3
:100AE0008DE2B70190E00E941C0806C0B70180E3C8
:100AF00090E00E941C087A94A714C0F3AA94F40111
:100B0000EA0DF11DB701808190E00E941C08A11040
:100B1000F5CF06C0B70180E290E00E941C083A942D
:100B20003110F8CF42CEF7012681378102C02FEF76
:100B30003FEFC9012C960FB6F894DEBF0FBECDBFB4
:100B4000DF91CF911F910F91FF90EF90DF90CF90A9
:100B5000BF90AF909F908F907F906F905F904F90DD
:100B60003F902F9008956F927F929F92AF92BF9285
:100B7000CF92DF92EF92FF920F931F93CF93DF9369
:100B8000CDB7DEB729970FB6F894DEBF0FBECDBF45
:100B90006A01B22E102F0C3318F4F02EF39402C019
:100BA000ACE3FA2E0F2D27E0AE014F5F5F4F0E949E
:100BB0002E07B9812B2F2970213031F0E1FC06C0BE
:100BC000E0FE06C0A0E205C0ADE203C0ABE201C09A
:100BD000A0E0B3FF3DC0AA2311F084E001C083E090
:100BE0008B1510F4B81A01C0B12CE4FC0BC08B2D8E
:100BF000F60190E202C0919381508111FCCFCB0CA1
:100C0000D11CB12CAA2319F0F601A1936F01E2FEC9
:100C10000DC08EE4D6018C9391E411969C931197AC
:100C200012968C93B3E0CB0ED11C09C08EE6F60170
:100C3000808391E691838283F3E0CF0ED11C8B2DCC
:100C4000F60190E202C0919381508111FCCF40C027
:100C5000B2FF45C0AA2311F084E001C083E08B15E8
:100C600010F4B81A01C0B12CE4FC0BC08B2DF601B6
:100C700090E202C0919381508111FCCFCB0CD11C2A
:100C8000B12CAA2319F0F601A1936F01E2FE0EC068
:100C900089E4D6018C938EE411968C93119786E4A7
:100CA00012968C93B3E0CB0ED11C0AC089E6F601F4
:100CB00080838EE6818386E68283F3E0CF0ED11CAB
:100CC0008B2DF60190E202C0919381508111FCCFEF
:100CD000F601EB0DF11D10822EEF3FEFAAC001E0EF
:100CE000A11101C000E0202F30E01816190624F4ED
:100CF000AC014F5F5F4F02C041E050E0420F531F15
:100D0000112329F0612F70E06F5F7F4F02C060E018
:100D100070E0460F571F6B2D70E04617570714F40D
:100D2000B41A01C0B12C3E2D3071E4FC0DC0E3FCBF
:100D30000BC02B2DF60140E202C04193215021113E
:100D4000FCCFCB0CD11CB12C002319F0F601A193E0
:100D50006F0131110BC02B2DF60130E302C031932E
:100D600021502111FCCFCB0CD11CB12CF80E3A81B3
:100D7000F0E1AF2EAB22B4FF03C0313309F4FA9493
:100D80001F142CF42F2D293018F028E001C021E089
:100D9000AC0197FF02C040E050E060E070E0EEE29E
:100DA0009E2E3C01621A71087C01E41AF50AFE01CC
:100DB0003196EE0DFF1D012F10E0119501951109DF
:100DC0004F3F2FEF520719F4D6019D926D01841702
:100DD000950754F0641675063CF47F01E60EF71E85
:100DE000D70111962C9101C020E3415051096F5F4A
:100DF0007F4F4017510724F0D6012D936D01E0CFAE
:100E00004817590739F4363320F4353319F4A11053
:100E100001C021E3F60121938B2DDF0190E202C096
:100E20009D9381508111FCCFEB0DF11D108220E0CC
:100E300030E0C90129960FB6F894DEBF0FBECDBFD2
:100E4000DF91CF911F910F91FF90EF90DF90CF90A6
:100E5000BF90AF909F907F906F900895283008F0DA
:100E600027E03327DA01990F311D87FD9160009645
:100E70006105710539F432602E5F3D9330E32A95A8
:100E8000E1F708959F3F30F080387105610509F062
:100E90003C5F3C5F3D93913008F08068911DDF938B
:100EA000CF931F930F93FF92EF92192F987F9695F0
:100EB000E92F96959695E90FFF27E25CFE4F99275B
:100EC0003327EE24FF24A701E70105900894079437
:100ED00028F4360FE71EF81E491F511D660F771FB5
:100EE000881F991F0694A1F70590079428F4E70E30
:100EF000F81E491F561FC11D770F881F991F661FB7
:100F00000694A1F70590079428F4F80E491F561F80
:100F1000C71FD11D880F991F661F771F0694A1F761
:100F20000590079420F4490F561FC71FD81F990F2B
:100F3000661F771F881F0694A9F784911095177074
:100F400041F0D695C79557954795F794E7941A952C
:100F5000C1F7E4EEF0E06894159015913591659134
:100F6000959105907FE27395E118F10A430B560BBA
:100F7000C90BD009C0F7E10CF11E431F561FC91F52
:100F8000D01D7EF4703311F48A95E6CFE8940150B9
:100F900030F0080F0AF40027021708F4202F2395D9
:100FA000022F7A3328F079E37D932A95E9F710C070
:100FB0007D932A9589F606949795679537951795A9
:100FC0001794E118F10A430B560BC90BD00998F09E
:100FD00023957E9173957A3308F070E37C93201308
:100FE000B8F77E9170617D9330F0839571E37D93C6
:100FF00070E32A95E1F71124EF90FF900F911F9174
:10100000CF91DF91992787FD90950895FC01059078
:10101000615070400110D8F7809590958E0F9F1FFA
:101020000895FC016150704001900110D8F780953F
:1010300090958E0F9F1F08950F931F93CF93DF936B
:101040008C01EB018B8181FD03C00FEF1FEF1AC0F4
:1010500082FF0DC02E813F818C819D812817390729
:1010600064F4E881F9810193F983E88306C0E88597
:10107000F985802F1995892B41F78E819F810196E3
:101080009F838E83C801DF91CF911F910F910895A7
:10109000FA01AA27283051F1203181F1E8946F93A9
:1010A0006E7F6E5F7F4F8F4F9F4FAF4FB1E03ED04F
:1010B000B4E03CD0670F781F891F9A1FA11D680FED
:1010C000791F8A1F911DA11D6A0F711D811D911D20
:1010D000A11D20D009F468943F912AE0269F112495
:1010E0003019305D3193DEF6CF010895462F4770F9
:1010F000405D4193B3E00FD0C9F7F6CF462F4F7054
:10110000405D4A3318F0495D31FD4052419302D0B1
:10111000A9F7EACFB4E0A695979587957795679557
:10112000BA95C9F700976105710508959B01AC0157
:101130000A2E06945795479537952795BA95C9F77E
:10114000620F731F841F951FA01D0895F894FFCF91
:10115000504B45532057696E74657273656D6573A6
:1011600074657220323031332F31340D0A00566FDE
:10117000726C61676520312E20417566676162651A
:10118000202D2056657273696F6E20000D0A2D2D7B
:101190002D2D2D2D2D2D2D2D2D2D2D2D2D2D2D2D7F
:1011A0002D2D2D2D2D2D2D2D2D2D2D2D2D2D2D2D6F
:1011B0000D0A0054617374652064727565636B6514
:1011C0006E200D0A00747269676765723A202533D4
:1011D00064007C20636F756E743A20253264207C35
:1011E000200020757020002073646F776E00207CD3
:0411F000200D0A00C4
:00000001FF
